{
  "_format": "hh-sol-artifact-1",
  "contractName": "RoboPunksNFT",
  "sourceName": "contracts/RoboPunksNFT.sol",
  "abi": [
    {
      "inputs": [],
      "stateMutability": "payable",
      "type": "constructor"
    },
    {
      "anonymous": false,
      "inputs": [
        {
          "indexed": true,
          "internalType": "address",
          "name": "owner",
          "type": "address"
        },
        {
          "indexed": true,
          "internalType": "address",
          "name": "approved",
          "type": "address"
        },
        {
          "indexed": true,
          "internalType": "uint256",
          "name": "tokenId",
          "type": "uint256"
        }
      ],
      "name": "Approval",
      "type": "event"
    },
    {
      "anonymous": false,
      "inputs": [
        {
          "indexed": true,
          "internalType": "address",
          "name": "owner",
          "type": "address"
        },
        {
          "indexed": true,
          "internalType": "address",
          "name": "operator",
          "type": "address"
        },
        {
          "indexed": false,
          "internalType": "bool",
          "name": "approved",
          "type": "bool"
        }
      ],
      "name": "ApprovalForAll",
      "type": "event"
    },
    {
      "anonymous": false,
      "inputs": [
        {
          "indexed": true,
          "internalType": "address",
          "name": "previousOwner",
          "type": "address"
        },
        {
          "indexed": true,
          "internalType": "address",
          "name": "newOwner",
          "type": "address"
        }
      ],
      "name": "OwnershipTransferred",
      "type": "event"
    },
    {
      "anonymous": false,
      "inputs": [
        {
          "indexed": true,
          "internalType": "address",
          "name": "from",
          "type": "address"
        },
        {
          "indexed": true,
          "internalType": "address",
          "name": "to",
          "type": "address"
        },
        {
          "indexed": true,
          "internalType": "uint256",
          "name": "tokenId",
          "type": "uint256"
        }
      ],
      "name": "Transfer",
      "type": "event"
    },
    {
      "inputs": [
        {
          "internalType": "address",
          "name": "to",
          "type": "address"
        },
        {
          "internalType": "uint256",
          "name": "tokenId",
          "type": "uint256"
        }
      ],
      "name": "approve",
      "outputs": [],
      "stateMutability": "nonpayable",
      "type": "function"
    },
    {
      "inputs": [
        {
          "internalType": "address",
          "name": "owner",
          "type": "address"
        }
      ],
      "name": "balanceOf",
      "outputs": [
        {
          "internalType": "uint256",
          "name": "",
          "type": "uint256"
        }
      ],
      "stateMutability": "view",
      "type": "function"
    },
    {
      "inputs": [
        {
          "internalType": "uint256",
          "name": "tokenId",
          "type": "uint256"
        }
      ],
      "name": "getApproved",
      "outputs": [
        {
          "internalType": "address",
          "name": "",
          "type": "address"
        }
      ],
      "stateMutability": "view",
      "type": "function"
    },
    {
      "inputs": [
        {
          "internalType": "address",
          "name": "owner",
          "type": "address"
        },
        {
          "internalType": "address",
          "name": "operator",
          "type": "address"
        }
      ],
      "name": "isApprovedForAll",
      "outputs": [
        {
          "internalType": "bool",
          "name": "",
          "type": "bool"
        }
      ],
      "stateMutability": "view",
      "type": "function"
    },
    {
      "inputs": [],
      "name": "isPublicMintEnabled",
      "outputs": [
        {
          "internalType": "bool",
          "name": "",
          "type": "bool"
        }
      ],
      "stateMutability": "view",
      "type": "function"
    },
    {
      "inputs": [],
      "name": "maxPerWallet",
      "outputs": [
        {
          "internalType": "uint256",
          "name": "",
          "type": "uint256"
        }
      ],
      "stateMutability": "view",
      "type": "function"
    },
    {
      "inputs": [],
      "name": "maxSupply",
      "outputs": [
        {
          "internalType": "uint256",
          "name": "",
          "type": "uint256"
        }
      ],
      "stateMutability": "view",
      "type": "function"
    },
    {
      "inputs": [
        {
          "internalType": "uint256",
          "name": "quantity_",
          "type": "uint256"
        }
      ],
      "name": "mint",
      "outputs": [],
      "stateMutability": "payable",
      "type": "function"
    },
    {
      "inputs": [],
      "name": "mintPrice",
      "outputs": [
        {
          "internalType": "uint256",
          "name": "",
          "type": "uint256"
        }
      ],
      "stateMutability": "view",
      "type": "function"
    },
    {
      "inputs": [],
      "name": "name",
      "outputs": [
        {
          "internalType": "string",
          "name": "",
          "type": "string"
        }
      ],
      "stateMutability": "view",
      "type": "function"
    },
    {
      "inputs": [],
      "name": "owner",
      "outputs": [
        {
          "internalType": "address",
          "name": "",
          "type": "address"
        }
      ],
      "stateMutability": "view",
      "type": "function"
    },
    {
      "inputs": [
        {
          "internalType": "uint256",
          "name": "tokenId",
          "type": "uint256"
        }
      ],
      "name": "ownerOf",
      "outputs": [
        {
          "internalType": "address",
          "name": "",
          "type": "address"
        }
      ],
      "stateMutability": "view",
      "type": "function"
    },
    {
      "inputs": [],
      "name": "renounceOwnership",
      "outputs": [],
      "stateMutability": "nonpayable",
      "type": "function"
    },
    {
      "inputs": [
        {
          "internalType": "address",
          "name": "from",
          "type": "address"
        },
        {
          "internalType": "address",
          "name": "to",
          "type": "address"
        },
        {
          "internalType": "uint256",
          "name": "tokenId",
          "type": "uint256"
        }
      ],
      "name": "safeTransferFrom",
      "outputs": [],
      "stateMutability": "nonpayable",
      "type": "function"
    },
    {
      "inputs": [
        {
          "internalType": "address",
          "name": "from",
          "type": "address"
        },
        {
          "internalType": "address",
          "name": "to",
          "type": "address"
        },
        {
          "internalType": "uint256",
          "name": "tokenId",
          "type": "uint256"
        },
        {
          "internalType": "bytes",
          "name": "data",
          "type": "bytes"
        }
      ],
      "name": "safeTransferFrom",
      "outputs": [],
      "stateMutability": "nonpayable",
      "type": "function"
    },
    {
      "inputs": [
        {
          "internalType": "address",
          "name": "operator",
          "type": "address"
        },
        {
          "internalType": "bool",
          "name": "approved",
          "type": "bool"
        }
      ],
      "name": "setApprovalForAll",
      "outputs": [],
      "stateMutability": "nonpayable",
      "type": "function"
    },
    {
      "inputs": [
        {
          "internalType": "string",
          "name": "baseTokenUri_",
          "type": "string"
        }
      ],
      "name": "setBaseTokenUri",
      "outputs": [],
      "stateMutability": "nonpayable",
      "type": "function"
    },
    {
      "inputs": [
        {
          "internalType": "bool",
          "name": "isPublicMintEnabled_",
          "type": "bool"
        }
      ],
      "name": "setIsPublicMintEnabled",
      "outputs": [],
      "stateMutability": "nonpayable",
      "type": "function"
    },
    {
      "inputs": [
        {
          "internalType": "bytes4",
          "name": "interfaceId",
          "type": "bytes4"
        }
      ],
      "name": "supportsInterface",
      "outputs": [
        {
          "internalType": "bool",
          "name": "",
          "type": "bool"
        }
      ],
      "stateMutability": "view",
      "type": "function"
    },
    {
      "inputs": [],
      "name": "symbol",
      "outputs": [
        {
          "internalType": "string",
          "name": "",
          "type": "string"
        }
      ],
      "stateMutability": "view",
      "type": "function"
    },
    {
      "inputs": [
        {
          "internalType": "uint256",
          "name": "tokenId_",
          "type": "uint256"
        }
      ],
      "name": "tokenURI",
      "outputs": [
        {
          "internalType": "string",
          "name": "",
          "type": "string"
        }
      ],
      "stateMutability": "view",
      "type": "function"
    },
    {
      "inputs": [],
      "name": "totalSupply",
      "outputs": [
        {
          "internalType": "uint256",
          "name": "",
          "type": "uint256"
        }
      ],
      "stateMutability": "view",
      "type": "function"
    },
    {
      "inputs": [
        {
          "internalType": "address",
          "name": "from",
          "type": "address"
        },
        {
          "internalType": "address",
          "name": "to",
          "type": "address"
        },
        {
          "internalType": "uint256",
          "name": "tokenId",
          "type": "uint256"
        }
      ],
      "name": "transferFrom",
      "outputs": [],
      "stateMutability": "nonpayable",
      "type": "function"
    },
    {
      "inputs": [
        {
          "internalType": "address",
          "name": "newOwner",
          "type": "address"
        }
      ],
      "name": "transferOwnership",
      "outputs": [],
      "stateMutability": "nonpayable",
      "type": "function"
    },
    {
      "inputs": [
        {
          "internalType": "address",
          "name": "",
          "type": "address"
        }
      ],
      "name": "walletMints",
      "outputs": [
        {
          "internalType": "uint256",
          "name": "",
          "type": "uint256"
        }
      ],
      "stateMutability": "view",
      "type": "function"
    },
    {
      "inputs": [],
      "name": "withdraw",
      "outputs": [],
      "stateMutability": "nonpayable",
      "type": "function"
    },
    {
      "inputs": [],
      "name": "withdrawWallet",
      "outputs": [
        {
          "internalType": "address",
          "name": "",
          "type": "address"
        }
      ],
      "stateMutability": "view",
      "type": "function"
    }
  ],
  "bytecode": "0x60806040526040518060400160405280600981526020017f526f626f50756e6b7300000000000000000000000000000000000000000000008152506040518060400160405280600281526020017f5250000000000000000000000000000000000000000000000000000000000000815250816000908051906020019062000088929190620001bf565b508060019080519060200190620000a1929190620001bf565b505050620000c4620000b8620000f160201b60201c565b620000f960201b60201c565b66470de4df82000060078190555060006008819055506103e86009819055506003600a81905550620002d4565b600033905090565b6000600660009054906101000a900473ffffffffffffffffffffffffffffffffffffffff16905081600660006101000a81548173ffffffffffffffffffffffffffffffffffffffff021916908373ffffffffffffffffffffffffffffffffffffffff1602179055508173ffffffffffffffffffffffffffffffffffffffff168173ffffffffffffffffffffffffffffffffffffffff167f8be0079c531659141344cd1fd0a4f28419497f9722a3daafe3b4186f6b6457e060405160405180910390a35050565b828054620001cd906200029e565b90600052602060002090601f016020900481019282620001f157600085556200023d565b82601f106200020c57805160ff19168380011785556200023d565b828001600101855582156200023d579182015b828111156200023c5782518255916020019190600101906200021f565b5b5090506200024c919062000250565b5090565b5b808211156200026b57600081600090555060010162000251565b5090565b7f4e487b7100000000000000000000000000000000000000000000000000000000600052602260045260246000fd5b60006002820490506001821680620002b757607f821691505b60208210811415620002ce57620002cd6200026f565b5b50919050565b61344980620002e46000396000f3fe60806040526004361061019c5760003560e01c806370a08231116100ec578063a22cb4651161008a578063d5abeb0111610064578063d5abeb0114610593578063e985e9c5146105be578063f0293fd3146105fb578063f2fde38b146106385761019c565b8063a22cb46514610504578063b88d4fde1461052d578063c87b56dd146105565761019c565b80638da5cb5b116100c65780638da5cb5b1461046957806395652cfa1461049457806395d89b41146104bd578063a0712d68146104e85761019c565b806370a08231146103ea578063715018a61461042757806385d178f41461043e5761019c565b80632373ac221161015957806342842e0e1161013357806342842e0e1461032e578063453c2310146103575780636352211e146103825780636817c76c146103bf5761019c565b80632373ac22146102c557806323b872dd146102ee5780633ccfd60b146103175761019c565b80630116bc2d146101a157806301ffc9a7146101cc57806306fdde0314610209578063081812fc14610234578063095ea7b31461027157806318160ddd1461029a575b600080fd5b3480156101ad57600080fd5b506101b6610661565b6040516101c39190611f6c565b60405180910390f35b3480156101d857600080fd5b506101f360048036038101906101ee9190611ff3565b610674565b6040516102009190611f6c565b60405180910390f35b34801561021557600080fd5b5061021e610756565b60405161022b91906120b9565b60405180910390f35b34801561024057600080fd5b5061025b60048036038101906102569190612111565b6107e8565b604051610268919061217f565b60405180910390f35b34801561027d57600080fd5b50610298600480360381019061029391906121c6565b61082e565b005b3480156102a657600080fd5b506102af610946565b6040516102bc9190612215565b60405180910390f35b3480156102d157600080fd5b506102ec60048036038101906102e7919061225c565b61094c565b005b3480156102fa57600080fd5b5061031560048036038101906103109190612289565b610975565b005b34801561032357600080fd5b5061032c6109d5565b005b34801561033a57600080fd5b5061035560048036038101906103509190612289565b610aae565b005b34801561036357600080fd5b5061036c610ace565b6040516103799190612215565b60405180910390f35b34801561038e57600080fd5b506103a960048036038101906103a49190612111565b610ad4565b6040516103b6919061217f565b60405180910390f35b3480156103cb57600080fd5b506103d4610b86565b6040516103e19190612215565b60405180910390f35b3480156103f657600080fd5b50610411600480360381019061040c91906122dc565b610b8c565b60405161041e9190612215565b60405180910390f35b34801561043357600080fd5b5061043c610c44565b005b34801561044a57600080fd5b50610453610c58565b604051610460919061217f565b60405180910390f35b34801561047557600080fd5b5061047e610c7e565b60405161048b919061217f565b60405180910390f35b3480156104a057600080fd5b506104bb60048036038101906104b6919061236e565b610ca8565b005b3480156104c957600080fd5b506104d2610cc6565b6040516104df91906120b9565b60405180910390f35b61050260048036038101906104fd9190612111565b610d58565b005b34801561051057600080fd5b5061052b600480360381019061052691906123bb565b610f30565b005b34801561053957600080fd5b50610554600480360381019061054f919061252b565b610f46565b005b34801561056257600080fd5b5061057d60048036038101906105789190612111565b610fa8565b60405161058a91906120b9565b60405180910390f35b34801561059f57600080fd5b506105a8611024565b6040516105b59190612215565b60405180910390f35b3480156105ca57600080fd5b506105e560048036038101906105e091906125ae565b61102a565b6040516105f29190611f6c565b60405180910390f35b34801561060757600080fd5b50610622600480360381019061061d91906122dc565b6110be565b60405161062f9190612215565b60405180910390f35b34801561064457600080fd5b5061065f600480360381019061065a91906122dc565b6110d6565b005b600b60009054906101000a900460ff1681565b60007f80ac58cd000000000000000000000000000000000000000000000000000000007bffffffffffffffffffffffffffffffffffffffffffffffffffffffff1916827bffffffffffffffffffffffffffffffffffffffffffffffffffffffff1916148061073f57507f5b5e139f000000000000000000000000000000000000000000000000000000007bffffffffffffffffffffffffffffffffffffffffffffffffffffffff1916827bffffffffffffffffffffffffffffffffffffffffffffffffffffffff1916145b8061074f575061074e8261115a565b5b9050919050565b6060600080546107659061261d565b80601f01602080910402602001604051908101604052809291908181526020018280546107919061261d565b80156107de5780601f106107b3576101008083540402835291602001916107de565b820191906000526020600020905b8154815290600101906020018083116107c157829003601f168201915b5050505050905090565b60006107f3826111c4565b6004600083815260200190815260200160002060009054906101000a900473ffffffffffffffffffffffffffffffffffffffff169050919050565b600061083982610ad4565b90508073ffffffffffffffffffffffffffffffffffffffff168373ffffffffffffffffffffffffffffffffffffffff1614156108aa576040517f08c379a00000000000000000000000000000000000000000000000000000000081526004016108a1906126c1565b60405180910390fd5b8073ffffffffffffffffffffffffffffffffffffffff166108c961120f565b73ffffffffffffffffffffffffffffffffffffffff1614806108f857506108f7816108f261120f565b61102a565b5b610937576040517f08c379a000000000000000000000000000000000000000000000000000000000815260040161092e90612753565b60405180910390fd5b6109418383611217565b505050565b60085481565b6109546112d0565b80600b60006101000a81548160ff0219169083151502179055506001905050565b61098661098061120f565b8261134e565b6109c5576040517f08c379a00000000000000000000000000000000000000000000000000000000081526004016109bc906127e5565b60405180910390fd5b6109d08383836113e3565b505050565b6109dd6112d0565b6000600d60009054906101000a900473ffffffffffffffffffffffffffffffffffffffff1673ffffffffffffffffffffffffffffffffffffffff1647604051610a2590612836565b60006040518083038185875af1925050503d8060008114610a62576040519150601f19603f3d011682016040523d82523d6000602084013e610a67565b606091505b5050905080610aab576040517f08c379a0000000000000000000000000000000000000000000000000000000008152600401610aa290612897565b60405180910390fd5b50565b610ac983838360405180602001604052806000815250610f46565b505050565b600a5481565b6000806002600084815260200190815260200160002060009054906101000a900473ffffffffffffffffffffffffffffffffffffffff169050600073ffffffffffffffffffffffffffffffffffffffff168173ffffffffffffffffffffffffffffffffffffffff161415610b7d576040517f08c379a0000000000000000000000000000000000000000000000000000000008152600401610b7490612903565b60405180910390fd5b80915050919050565b60075481565b60008073ffffffffffffffffffffffffffffffffffffffff168273ffffffffffffffffffffffffffffffffffffffff161415610bfd576040517f08c379a0000000000000000000000000000000000000000000000000000000008152600401610bf490612995565b60405180910390fd5b600360008373ffffffffffffffffffffffffffffffffffffffff1673ffffffffffffffffffffffffffffffffffffffff168152602001908152602001600020549050919050565b610c4c6112d0565b610c56600061164a565b565b600d60009054906101000a900473ffffffffffffffffffffffffffffffffffffffff1681565b6000600660009054906101000a900473ffffffffffffffffffffffffffffffffffffffff16905090565b610cb06112d0565b8181600c9190610cc1929190611eae565b505050565b606060018054610cd59061261d565b80601f0160208091040260200160405190810160405280929190818152602001828054610d019061261d565b8015610d4e5780601f10610d2357610100808354040283529160200191610d4e565b820191906000526020600020905b815481529060010190602001808311610d3157829003601f168201915b5050505050905090565b600b60009054906101000a900460ff16610da7576040517f08c379a0000000000000000000000000000000000000000000000000000000008152600401610d9e90612a01565b60405180910390fd5b60075481610db59190612a50565b3414610df6576040517f08c379a0000000000000000000000000000000000000000000000000000000008152600401610ded90612af6565b60405180910390fd5b60095481600854610e079190612b16565b1115610e48576040517f08c379a0000000000000000000000000000000000000000000000000000000008152600401610e3f90612bb8565b60405180910390fd5b600a5481600e60003373ffffffffffffffffffffffffffffffffffffffff1673ffffffffffffffffffffffffffffffffffffffff16815260200190815260200160002054610e969190612b16565b1115610ed7576040517f08c379a0000000000000000000000000000000000000000000000000000000008152600401610ece90612c24565b60405180910390fd5b60005b8160011015610f2c5760006001600854610ef49190612b16565b905060086000815480929190610f0990612c44565b9190505550610f183382611710565b508080610f2490612c44565b915050610eda565b5050565b610f42610f3b61120f565b838361172e565b5050565b610f57610f5161120f565b8361134e565b610f96576040517f08c379a0000000000000000000000000000000000000000000000000000000008152600401610f8d906127e5565b60405180910390fd5b610fa28484848461189b565b50505050565b6060610fb3826118f7565b610ff2576040517f08c379a0000000000000000000000000000000000000000000000000000000008152600401610fe990612cd9565b60405180910390fd5b600c610ffd83611963565b60405160200161100e929190612e15565b6040516020818303038152906040529050919050565b60095481565b6000600560008473ffffffffffffffffffffffffffffffffffffffff1673ffffffffffffffffffffffffffffffffffffffff16815260200190815260200160002060008373ffffffffffffffffffffffffffffffffffffffff1673ffffffffffffffffffffffffffffffffffffffff16815260200190815260200160002060009054906101000a900460ff16905092915050565b600e6020528060005260406000206000915090505481565b6110de6112d0565b600073ffffffffffffffffffffffffffffffffffffffff168173ffffffffffffffffffffffffffffffffffffffff16141561114e576040517f08c379a000000000000000000000000000000000000000000000000000000000815260040161114590612eb6565b60405180910390fd5b6111578161164a565b50565b60007f01ffc9a7000000000000000000000000000000000000000000000000000000007bffffffffffffffffffffffffffffffffffffffffffffffffffffffff1916827bffffffffffffffffffffffffffffffffffffffffffffffffffffffff1916149050919050565b6111cd816118f7565b61120c576040517f08c379a000000000000000000000000000000000000000000000000000000000815260040161120390612903565b60405180910390fd5b50565b600033905090565b816004600083815260200190815260200160002060006101000a81548173ffffffffffffffffffffffffffffffffffffffff021916908373ffffffffffffffffffffffffffffffffffffffff160217905550808273ffffffffffffffffffffffffffffffffffffffff1661128a83610ad4565b73ffffffffffffffffffffffffffffffffffffffff167f8c5be1e5ebec7d5bd14f71427d1e84f3dd0314c0f7b2291e5b200ac8c7c3b92560405160405180910390a45050565b6112d861120f565b73ffffffffffffffffffffffffffffffffffffffff166112f6610c7e565b73ffffffffffffffffffffffffffffffffffffffff161461134c576040517f08c379a000000000000000000000000000000000000000000000000000000000815260040161134390612f22565b60405180910390fd5b565b60008061135a83610ad4565b90508073ffffffffffffffffffffffffffffffffffffffff168473ffffffffffffffffffffffffffffffffffffffff16148061139c575061139b818561102a565b5b806113da57508373ffffffffffffffffffffffffffffffffffffffff166113c2846107e8565b73ffffffffffffffffffffffffffffffffffffffff16145b91505092915050565b8273ffffffffffffffffffffffffffffffffffffffff1661140382610ad4565b73ffffffffffffffffffffffffffffffffffffffff1614611459576040517f08c379a000000000000000000000000000000000000000000000000000000000815260040161145090612fb4565b60405180910390fd5b600073ffffffffffffffffffffffffffffffffffffffff168273ffffffffffffffffffffffffffffffffffffffff1614156114c9576040517f08c379a00000000000000000000000000000000000000000000000000000000081526004016114c090613046565b60405180910390fd5b6114d4838383611ac4565b6114df600082611217565b6001600360008573ffffffffffffffffffffffffffffffffffffffff1673ffffffffffffffffffffffffffffffffffffffff168152602001908152602001600020600082825461152f9190613066565b925050819055506001600360008473ffffffffffffffffffffffffffffffffffffffff1673ffffffffffffffffffffffffffffffffffffffff16815260200190815260200160002060008282546115869190612b16565b92505081905550816002600083815260200190815260200160002060006101000a81548173ffffffffffffffffffffffffffffffffffffffff021916908373ffffffffffffffffffffffffffffffffffffffff160217905550808273ffffffffffffffffffffffffffffffffffffffff168473ffffffffffffffffffffffffffffffffffffffff167fddf252ad1be2c89b69c2b068fc378daa952ba7f163c4a11628f55a4df523b3ef60405160405180910390a4611645838383611ac9565b505050565b6000600660009054906101000a900473ffffffffffffffffffffffffffffffffffffffff16905081600660006101000a81548173ffffffffffffffffffffffffffffffffffffffff021916908373ffffffffffffffffffffffffffffffffffffffff1602179055508173ffffffffffffffffffffffffffffffffffffffff168173ffffffffffffffffffffffffffffffffffffffff167f8be0079c531659141344cd1fd0a4f28419497f9722a3daafe3b4186f6b6457e060405160405180910390a35050565b61172a828260405180602001604052806000815250611ace565b5050565b8173ffffffffffffffffffffffffffffffffffffffff168373ffffffffffffffffffffffffffffffffffffffff16141561179d576040517f08c379a0000000000000000000000000000000000000000000000000000000008152600401611794906130e6565b60405180910390fd5b80600560008573ffffffffffffffffffffffffffffffffffffffff1673ffffffffffffffffffffffffffffffffffffffff16815260200190815260200160002060008473ffffffffffffffffffffffffffffffffffffffff1673ffffffffffffffffffffffffffffffffffffffff16815260200190815260200160002060006101000a81548160ff0219169083151502179055508173ffffffffffffffffffffffffffffffffffffffff168373ffffffffffffffffffffffffffffffffffffffff167f17307eab39ab6107e8899845ad3d59bd9653f200f220920489ca2b5937696c318360405161188e9190611f6c565b60405180910390a3505050565b6118a68484846113e3565b6118b284848484611b29565b6118f1576040517f08c379a00000000000000000000000000000000000000000000000000000000081526004016118e890613178565b60405180910390fd5b50505050565b60008073ffffffffffffffffffffffffffffffffffffffff166002600084815260200190815260200160002060009054906101000a900473ffffffffffffffffffffffffffffffffffffffff1673ffffffffffffffffffffffffffffffffffffffff1614159050919050565b606060008214156119ab576040518060400160405280600181526020017f30000000000000000000000000000000000000000000000000000000000000008152509050611abf565b600082905060005b600082146119dd5780806119c690612c44565b915050600a826119d691906131c7565b91506119b3565b60008167ffffffffffffffff8111156119f9576119f8612400565b5b6040519080825280601f01601f191660200182016040528015611a2b5781602001600182028036833780820191505090505b5090505b60008514611ab857600182611a449190613066565b9150600a85611a5391906131f8565b6030611a5f9190612b16565b60f81b818381518110611a7557611a74613229565b5b60200101907effffffffffffffffffffffffffffffffffffffffffffffffffffffffffffff1916908160001a905350600a85611ab191906131c7565b9450611a2f565b8093505050505b919050565b505050565b505050565b611ad88383611cb1565b611ae56000848484611b29565b611b24576040517f08c379a0000000000000000000000000000000000000000000000000000000008152600401611b1b90613178565b60405180910390fd5b505050565b6000611b4a8473ffffffffffffffffffffffffffffffffffffffff16611e8b565b15611ca4578373ffffffffffffffffffffffffffffffffffffffff1663150b7a02611b7361120f565b8786866040518563ffffffff1660e01b8152600401611b9594939291906132ad565b6020604051808303816000875af1925050508015611bd157506040513d601f19601f82011682018060405250810190611bce919061330e565b60015b611c54573d8060008114611c01576040519150601f19603f3d011682016040523d82523d6000602084013e611c06565b606091505b50600081511415611c4c576040517f08c379a0000000000000000000000000000000000000000000000000000000008152600401611c4390613178565b60405180910390fd5b805181602001fd5b63150b7a0260e01b7bffffffffffffffffffffffffffffffffffffffffffffffffffffffff1916817bffffffffffffffffffffffffffffffffffffffffffffffffffffffff191614915050611ca9565b600190505b949350505050565b600073ffffffffffffffffffffffffffffffffffffffff168273ffffffffffffffffffffffffffffffffffffffff161415611d21576040517f08c379a0000000000000000000000000000000000000000000000000000000008152600401611d1890613387565b60405180910390fd5b611d2a816118f7565b15611d6a576040517f08c379a0000000000000000000000000000000000000000000000000000000008152600401611d61906133f3565b60405180910390fd5b611d7660008383611ac4565b6001600360008473ffffffffffffffffffffffffffffffffffffffff1673ffffffffffffffffffffffffffffffffffffffff1681526020019081526020016000206000828254611dc69190612b16565b92505081905550816002600083815260200190815260200160002060006101000a81548173ffffffffffffffffffffffffffffffffffffffff021916908373ffffffffffffffffffffffffffffffffffffffff160217905550808273ffffffffffffffffffffffffffffffffffffffff16600073ffffffffffffffffffffffffffffffffffffffff167fddf252ad1be2c89b69c2b068fc378daa952ba7f163c4a11628f55a4df523b3ef60405160405180910390a4611e8760008383611ac9565b5050565b6000808273ffffffffffffffffffffffffffffffffffffffff163b119050919050565b828054611eba9061261d565b90600052602060002090601f016020900481019282611edc5760008555611f23565b82601f10611ef557803560ff1916838001178555611f23565b82800160010185558215611f23579182015b82811115611f22578235825591602001919060010190611f07565b5b509050611f309190611f34565b5090565b5b80821115611f4d576000816000905550600101611f35565b5090565b60008115159050919050565b611f6681611f51565b82525050565b6000602082019050611f816000830184611f5d565b92915050565b6000604051905090565b600080fd5b600080fd5b60007fffffffff0000000000000000000000000000000000000000000000000000000082169050919050565b611fd081611f9b565b8114611fdb57600080fd5b50565b600081359050611fed81611fc7565b92915050565b60006020828403121561200957612008611f91565b5b600061201784828501611fde565b91505092915050565b600081519050919050565b600082825260208201905092915050565b60005b8381101561205a57808201518184015260208101905061203f565b83811115612069576000848401525b50505050565b6000601f19601f8301169050919050565b600061208b82612020565b612095818561202b565b93506120a581856020860161203c565b6120ae8161206f565b840191505092915050565b600060208201905081810360008301526120d38184612080565b905092915050565b6000819050919050565b6120ee816120db565b81146120f957600080fd5b50565b60008135905061210b816120e5565b92915050565b60006020828403121561212757612126611f91565b5b6000612135848285016120fc565b91505092915050565b600073ffffffffffffffffffffffffffffffffffffffff82169050919050565b60006121698261213e565b9050919050565b6121798161215e565b82525050565b60006020820190506121946000830184612170565b92915050565b6121a38161215e565b81146121ae57600080fd5b50565b6000813590506121c08161219a565b92915050565b600080604083850312156121dd576121dc611f91565b5b60006121eb858286016121b1565b92505060206121fc858286016120fc565b9150509250929050565b61220f816120db565b82525050565b600060208201905061222a6000830184612206565b92915050565b61223981611f51565b811461224457600080fd5b50565b60008135905061225681612230565b92915050565b60006020828403121561227257612271611f91565b5b600061228084828501612247565b91505092915050565b6000806000606084860312156122a2576122a1611f91565b5b60006122b0868287016121b1565b93505060206122c1868287016121b1565b92505060406122d2868287016120fc565b9150509250925092565b6000602082840312156122f2576122f1611f91565b5b6000612300848285016121b1565b91505092915050565b600080fd5b600080fd5b600080fd5b60008083601f84011261232e5761232d612309565b5b8235905067ffffffffffffffff81111561234b5761234a61230e565b5b60208301915083600182028301111561236757612366612313565b5b9250929050565b6000806020838503121561238557612384611f91565b5b600083013567ffffffffffffffff8111156123a3576123a2611f96565b5b6123af85828601612318565b92509250509250929050565b600080604083850312156123d2576123d1611f91565b5b60006123e0858286016121b1565b92505060206123f185828601612247565b9150509250929050565b600080fd5b7f4e487b7100000000000000000000000000000000000000000000000000000000600052604160045260246000fd5b6124388261206f565b810181811067ffffffffffffffff8211171561245757612456612400565b5b80604052505050565b600061246a611f87565b9050612476828261242f565b919050565b600067ffffffffffffffff82111561249657612495612400565b5b61249f8261206f565b9050602081019050919050565b82818337600083830152505050565b60006124ce6124c98461247b565b612460565b9050828152602081018484840111156124ea576124e96123fb565b5b6124f58482856124ac565b509392505050565b600082601f83011261251257612511612309565b5b81356125228482602086016124bb565b91505092915050565b6000806000806080858703121561254557612544611f91565b5b6000612553878288016121b1565b9450506020612564878288016121b1565b9350506040612575878288016120fc565b925050606085013567ffffffffffffffff81111561259657612595611f96565b5b6125a2878288016124fd565b91505092959194509250565b600080604083850312156125c5576125c4611f91565b5b60006125d3858286016121b1565b92505060206125e4858286016121b1565b9150509250929050565b7f4e487b7100000000000000000000000000000000000000000000000000000000600052602260045260246000fd5b6000600282049050600182168061263557607f821691505b60208210811415612649576126486125ee565b5b50919050565b7f4552433732313a20617070726f76616c20746f2063757272656e74206f776e6560008201527f7200000000000000000000000000000000000000000000000000000000000000602082015250565b60006126ab60218361202b565b91506126b68261264f565b604082019050919050565b600060208201905081810360008301526126da8161269e565b9050919050565b7f4552433732313a20617070726f76652063616c6c6572206973206e6f7420746f60008201527f6b656e206f776e6572206e6f7220617070726f76656420666f7220616c6c0000602082015250565b600061273d603e8361202b565b9150612748826126e1565b604082019050919050565b6000602082019050818103600083015261276c81612730565b9050919050565b7f4552433732313a2063616c6c6572206973206e6f7420746f6b656e206f776e6560008201527f72206e6f7220617070726f766564000000000000000000000000000000000000602082015250565b60006127cf602e8361202b565b91506127da82612773565b604082019050919050565b600060208201905081810360008301526127fe816127c2565b9050919050565b600081905092915050565b50565b6000612820600083612805565b915061282b82612810565b600082019050919050565b600061284182612813565b9150819050919050565b7f7769746864726177206661696c65640000000000000000000000000000000000600082015250565b6000612881600f8361202b565b915061288c8261284b565b602082019050919050565b600060208201905081810360008301526128b081612874565b9050919050565b7f4552433732313a20696e76616c696420746f6b656e2049440000000000000000600082015250565b60006128ed60188361202b565b91506128f8826128b7565b602082019050919050565b6000602082019050818103600083015261291c816128e0565b9050919050565b7f4552433732313a2061646472657373207a65726f206973206e6f74206120766160008201527f6c6964206f776e65720000000000000000000000000000000000000000000000602082015250565b600061297f60298361202b565b915061298a82612923565b604082019050919050565b600060208201905081810360008301526129ae81612972565b9050919050565b7f6d696e74696e67206e6f7420656e61626c656400000000000000000000000000600082015250565b60006129eb60138361202b565b91506129f6826129b5565b602082019050919050565b60006020820190508181036000830152612a1a816129de565b9050919050565b7f4e487b7100000000000000000000000000000000000000000000000000000000600052601160045260246000fd5b6000612a5b826120db565b9150612a66836120db565b9250817fffffffffffffffffffffffffffffffffffffffffffffffffffffffffffffffff0483118215151615612a9f57612a9e612a21565b5b828202905092915050565b7f77726f6e67206d696e742076616c756500000000000000000000000000000000600082015250565b6000612ae060108361202b565b9150612aeb82612aaa565b602082019050919050565b60006020820190508181036000830152612b0f81612ad3565b9050919050565b6000612b21826120db565b9150612b2c836120db565b9250827fffffffffffffffffffffffffffffffffffffffffffffffffffffffffffffffff03821115612b6157612b60612a21565b5b828201905092915050565b7f736f6c64206f7574000000000000000000000000000000000000000000000000600082015250565b6000612ba260088361202b565b9150612bad82612b6c565b602082019050919050565b60006020820190508181036000830152612bd181612b95565b9050919050565b7f657863656564206d61782077616c6c6574000000000000000000000000000000600082015250565b6000612c0e60118361202b565b9150612c1982612bd8565b602082019050919050565b60006020820190508181036000830152612c3d81612c01565b9050919050565b6000612c4f826120db565b91507fffffffffffffffffffffffffffffffffffffffffffffffffffffffffffffffff821415612c8257612c81612a21565b5b600182019050919050565b7f546f6b656e20646f6573206e6f74206578697374000000000000000000000000600082015250565b6000612cc360148361202b565b9150612cce82612c8d565b602082019050919050565b60006020820190508181036000830152612cf281612cb6565b9050919050565b600081905092915050565b60008190508160005260206000209050919050565b60008154612d268161261d565b612d308186612cf9565b94506001821660008114612d4b5760018114612d5c57612d8f565b60ff19831686528186019350612d8f565b612d6585612d04565b60005b83811015612d8757815481890152600182019150602081019050612d68565b838801955050505b50505092915050565b6000612da382612020565b612dad8185612cf9565b9350612dbd81856020860161203c565b80840191505092915050565b7f6a736f6e00000000000000000000000000000000000000000000000000000000600082015250565b6000612dff600483612cf9565b9150612e0a82612dc9565b600482019050919050565b6000612e218285612d19565b9150612e2d8284612d98565b9150612e3882612df2565b91508190509392505050565b7f4f776e61626c653a206e6577206f776e657220697320746865207a65726f206160008201527f6464726573730000000000000000000000000000000000000000000000000000602082015250565b6000612ea060268361202b565b9150612eab82612e44565b604082019050919050565b60006020820190508181036000830152612ecf81612e93565b9050919050565b7f4f776e61626c653a2063616c6c6572206973206e6f7420746865206f776e6572600082015250565b6000612f0c60208361202b565b9150612f1782612ed6565b602082019050919050565b60006020820190508181036000830152612f3b81612eff565b9050919050565b7f4552433732313a207472616e736665722066726f6d20696e636f72726563742060008201527f6f776e6572000000000000000000000000000000000000000000000000000000602082015250565b6000612f9e60258361202b565b9150612fa982612f42565b604082019050919050565b60006020820190508181036000830152612fcd81612f91565b9050919050565b7f4552433732313a207472616e7366657220746f20746865207a65726f2061646460008201527f7265737300000000000000000000000000000000000000000000000000000000602082015250565b600061303060248361202b565b915061303b82612fd4565b604082019050919050565b6000602082019050818103600083015261305f81613023565b9050919050565b6000613071826120db565b915061307c836120db565b92508282101561308f5761308e612a21565b5b828203905092915050565b7f4552433732313a20617070726f766520746f2063616c6c657200000000000000600082015250565b60006130d060198361202b565b91506130db8261309a565b602082019050919050565b600060208201905081810360008301526130ff816130c3565b9050919050565b7f4552433732313a207472616e7366657220746f206e6f6e20455243373231526560008201527f63656976657220696d706c656d656e7465720000000000000000000000000000602082015250565b600061316260328361202b565b915061316d82613106565b604082019050919050565b6000602082019050818103600083015261319181613155565b9050919050565b7f4e487b7100000000000000000000000000000000000000000000000000000000600052601260045260246000fd5b60006131d2826120db565b91506131dd836120db565b9250826131ed576131ec613198565b5b828204905092915050565b6000613203826120db565b915061320e836120db565b92508261321e5761321d613198565b5b828206905092915050565b7f4e487b7100000000000000000000000000000000000000000000000000000000600052603260045260246000fd5b600081519050919050565b600082825260208201905092915050565b600061327f82613258565b6132898185613263565b935061329981856020860161203c565b6132a28161206f565b840191505092915050565b60006080820190506132c26000830187612170565b6132cf6020830186612170565b6132dc6040830185612206565b81810360608301526132ee8184613274565b905095945050505050565b60008151905061330881611fc7565b92915050565b60006020828403121561332457613323611f91565b5b6000613332848285016132f9565b91505092915050565b7f4552433732313a206d696e7420746f20746865207a65726f2061646472657373600082015250565b600061337160208361202b565b915061337c8261333b565b602082019050919050565b600060208201905081810360008301526133a081613364565b9050919050565b7f4552433732313a20746f6b656e20616c7265616479206d696e74656400000000600082015250565b60006133dd601c8361202b565b91506133e8826133a7565b602082019050919050565b6000602082019050818103600083015261340c816133d0565b905091905056fea2646970667358221220d7bef6b945b6bb5642aa011bd988b818d6b75fb39a81f55005d321cf17e62df164736f6c634300080a0033",
  "linkReferences": {},
  "deployedLinkReferences": {}
}